{
  "contractName": "Contractio",
  "abi": [
    {
      "inputs": [],
      "payable": false,
      "stateMutability": "nonpayable",
      "type": "constructor"
    },
    {
      "constant": true,
      "inputs": [],
      "name": "bidCount",
      "outputs": [
        {
          "internalType": "uint256",
          "name": "",
          "type": "uint256"
        }
      ],
      "payable": false,
      "stateMutability": "view",
      "type": "function"
    },
    {
      "constant": true,
      "inputs": [
        {
          "internalType": "uint256",
          "name": "",
          "type": "uint256"
        }
      ],
      "name": "bids",
      "outputs": [
        {
          "internalType": "uint256",
          "name": "id",
          "type": "uint256"
        },
        {
          "internalType": "string",
          "name": "desc",
          "type": "string"
        },
        {
          "internalType": "uint256",
          "name": "amount",
          "type": "uint256"
        },
        {
          "internalType": "string",
          "name": "forContract",
          "type": "string"
        },
        {
          "internalType": "string",
          "name": "bidder",
          "type": "string"
        },
        {
          "internalType": "bool",
          "name": "approved",
          "type": "bool"
        }
      ],
      "payable": false,
      "stateMutability": "view",
      "type": "function"
    },
    {
      "constant": true,
      "inputs": [],
      "name": "contractCount",
      "outputs": [
        {
          "internalType": "uint256",
          "name": "",
          "type": "uint256"
        }
      ],
      "payable": false,
      "stateMutability": "view",
      "type": "function"
    },
    {
      "constant": true,
      "inputs": [
        {
          "internalType": "uint256",
          "name": "",
          "type": "uint256"
        }
      ],
      "name": "contracts",
      "outputs": [
        {
          "internalType": "uint256",
          "name": "id",
          "type": "uint256"
        },
        {
          "internalType": "string",
          "name": "name",
          "type": "string"
        },
        {
          "internalType": "string",
          "name": "sector",
          "type": "string"
        },
        {
          "internalType": "string",
          "name": "description",
          "type": "string"
        },
        {
          "internalType": "uint256",
          "name": "baseAmount",
          "type": "uint256"
        },
        {
          "internalType": "uint256",
          "name": "createdAt",
          "type": "uint256"
        },
        {
          "internalType": "string",
          "name": "allocatedTo",
          "type": "string"
        },
        {
          "internalType": "bool",
          "name": "completed",
          "type": "bool"
        }
      ],
      "payable": false,
      "stateMutability": "view",
      "type": "function"
    },
    {
      "constant": true,
      "inputs": [],
      "name": "userCount",
      "outputs": [
        {
          "internalType": "uint256",
          "name": "",
          "type": "uint256"
        }
      ],
      "payable": false,
      "stateMutability": "view",
      "type": "function"
    },
    {
      "constant": true,
      "inputs": [
        {
          "internalType": "uint256",
          "name": "",
          "type": "uint256"
        }
      ],
      "name": "users",
      "outputs": [
        {
          "internalType": "uint256",
          "name": "id",
          "type": "uint256"
        },
        {
          "internalType": "string",
          "name": "username",
          "type": "string"
        },
        {
          "internalType": "string",
          "name": "email",
          "type": "string"
        },
        {
          "internalType": "uint256",
          "name": "createdAt",
          "type": "uint256"
        }
      ],
      "payable": false,
      "stateMutability": "view",
      "type": "function"
    },
    {
      "constant": false,
      "inputs": [
        {
          "internalType": "string",
          "name": "_username",
          "type": "string"
        },
        {
          "internalType": "string",
          "name": "_email",
          "type": "string"
        }
      ],
      "name": "addUser",
      "outputs": [],
      "payable": false,
      "stateMutability": "nonpayable",
      "type": "function"
    },
    {
      "constant": false,
      "inputs": [
        {
          "internalType": "string",
          "name": "_name",
          "type": "string"
        },
        {
          "internalType": "string",
          "name": "_sector",
          "type": "string"
        },
        {
          "internalType": "string",
          "name": "_description",
          "type": "string"
        },
        {
          "internalType": "uint256",
          "name": "_baseAmount",
          "type": "uint256"
        }
      ],
      "name": "addContract",
      "outputs": [],
      "payable": false,
      "stateMutability": "nonpayable",
      "type": "function"
    },
    {
      "constant": false,
      "inputs": [
        {
          "internalType": "string",
          "name": "_desc",
          "type": "string"
        },
        {
          "internalType": "uint256",
          "name": "_amount",
          "type": "uint256"
        },
        {
          "internalType": "string",
          "name": "_forContract",
          "type": "string"
        },
        {
          "internalType": "string",
          "name": "_bidder",
          "type": "string"
        }
      ],
      "name": "addBid",
      "outputs": [],
      "payable": false,
      "stateMutability": "nonpayable",
      "type": "function"
    },
    {
      "constant": false,
      "inputs": [
        {
          "internalType": "uint256",
          "name": "_bidSerial",
          "type": "uint256"
        },
        {
          "internalType": "uint256",
          "name": "_contractSerial",
          "type": "uint256"
        }
      ],
      "name": "approveBid",
      "outputs": [],
      "payable": false,
      "stateMutability": "nonpayable",
      "type": "function"
    }
  ],
  "bytecode": "0x6080604052600080556000600155600060025534801561001e57600080fd5b5033600360006101000a81548173ffffffffffffffffffffffffffffffffffffffff021916908373ffffffffffffffffffffffffffffffffffffffff1602179055506116588061006f6000396000f3fe608060405234801561001057600080fd5b506004361061009e5760003560e01c80634ef417b1116100665780634ef417b1146106d7578063750e976b1461070f5780638736381a14610902578063b40a562714610920578063e0f89e5f1461093e5761009e565b806307973ccf146100a3578063079eaf34146100c1578063365b98b2146102135780634423c5f114610334578063474da79a146104cc575b600080fd5b6100ab610b31565b6040518082815260200191505060405180910390f35b610211600480360360408110156100d757600080fd5b81019080803590602001906401000000008111156100f457600080fd5b82018360208201111561010657600080fd5b8035906020019184600183028401116401000000008311171561012857600080fd5b91908080601f016020809104026020016040519081016040528093929190818152602001838380828437600081840152601f19601f8201169050808301925050505050505091929192908035906020019064010000000081111561018b57600080fd5b82018360208201111561019d57600080fd5b803590602001918460018302840111640100000000831117156101bf57600080fd5b91908080601f016020809104026020016040519081016040528093929190818152602001838380828437600081840152601f19601f820116905080830192505050505050509192919290505050610b37565b005b61023f6004803603602081101561022957600080fd5b8101908080359060200190929190505050610bd6565b604051808581526020018060200180602001848152602001838103835286818151815260200191508051906020019080838360005b8381101561028f578082015181840152602081019050610274565b50505050905090810190601f1680156102bc5780820380516001836020036101000a031916815260200191505b50838103825285818151815260200191508051906020019080838360005b838110156102f55780820151818401526020810190506102da565b50505050905090810190601f1680156103225780820380516001836020036101000a031916815260200191505b50965050505050505060405180910390f35b6103606004803603602081101561034a57600080fd5b8101908080359060200190929190505050610d36565b6040518087815260200180602001868152602001806020018060200185151515158152602001848103845289818151815260200191508051906020019080838360005b838110156103be5780820151818401526020810190506103a3565b50505050905090810190601f1680156103eb5780820380516001836020036101000a031916815260200191505b50848103835287818151815260200191508051906020019080838360005b83811015610424578082015181840152602081019050610409565b50505050905090810190601f1680156104515780820380516001836020036101000a031916815260200191505b50848103825286818151815260200191508051906020019080838360005b8381101561048a57808201518184015260208101905061046f565b50505050905090810190601f1680156104b75780820380516001836020036101000a031916815260200191505b50995050505050505050505060405180910390f35b6104f8600480360360208110156104e257600080fd5b8101908080359060200190929190505050610f47565b60405180898152602001806020018060200180602001888152602001878152602001806020018615151515815260200185810385528c818151815260200191508051906020019080838360005b83811015610560578082015181840152602081019050610545565b50505050905090810190601f16801561058d5780820380516001836020036101000a031916815260200191505b5085810384528b818151815260200191508051906020019080838360005b838110156105c65780820151818401526020810190506105ab565b50505050905090810190601f1680156105f35780820380516001836020036101000a031916815260200191505b5085810383528a818151815260200191508051906020019080838360005b8381101561062c578082015181840152602081019050610611565b50505050905090810190601f1680156106595780820380516001836020036101000a031916815260200191505b50858103825287818151815260200191508051906020019080838360005b83811015610692578082015181840152602081019050610677565b50505050905090810190601f1680156106bf5780820380516001836020036101000a031916815260200191505b509c5050505050505050505050505060405180910390f35b61070d600480360360408110156106ed57600080fd5b8101908080359060200190929190803590602001909291905050506111fc565b005b6109006004803603608081101561072557600080fd5b810190808035906020019064010000000081111561074257600080fd5b82018360208201111561075457600080fd5b8035906020019184600183028401116401000000008311171561077657600080fd5b91908080601f016020809104026020016040519081016040528093929190818152602001838380828437600081840152601f19601f82011690508083019250505050505050919291929080359060200190929190803590602001906401000000008111156107e357600080fd5b8201836020820111156107f557600080fd5b8035906020019184600183028401116401000000008311171561081757600080fd5b91908080601f016020809104026020016040519081016040528093929190818152602001838380828437600081840152601f19601f8201169050808301925050505050505091929192908035906020019064010000000081111561087a57600080fd5b82018360208201111561088c57600080fd5b803590602001918460018302840111640100000000831117156108ae57600080fd5b91908080601f016020809104026020016040519081016040528093929190818152602001838380828437600081840152601f19601f8201169050808301925050505050505091929192905050506112aa565b005b61090a611397565b6040518082815260200191505060405180910390f35b61092861139d565b6040518082815260200191505060405180910390f35b610b2f6004803603608081101561095457600080fd5b810190808035906020019064010000000081111561097157600080fd5b82018360208201111561098357600080fd5b803590602001918460018302840111640100000000831117156109a557600080fd5b91908080601f016020809104026020016040519081016040528093929190818152602001838380828437600081840152601f19601f82011690508083019250505050505050919291929080359060200190640100000000811115610a0857600080fd5b820183602082011115610a1a57600080fd5b80359060200191846001830284011164010000000083111715610a3c57600080fd5b91908080601f016020809104026020016040519081016040528093929190818152602001838380828437600081840152601f19601f82011690508083019250505050505050919291929080359060200190640100000000811115610a9f57600080fd5b820183602082011115610ab157600080fd5b80359060200191846001830284011164010000000083111715610ad357600080fd5b91908080601f016020809104026020016040519081016040528093929190818152602001838380828437600081840152601f19601f820116905080830192505050505050509192919290803590602001909291905050506113a3565b005b60015481565b6001600081548092919060010191905055506040518060800160405280600154815260200183815260200182815260200142815250600560006001548152602001908152602001600020600082015181600001556020820151816001019080519060200190610ba79291906114f7565b506040820151816002019080519060200190610bc49291906114f7565b50606082015181600301559050505050565b6005602052806000526040600020600091509050806000015490806001018054600181600116156101000203166002900480601f016020809104026020016040519081016040528092919081815260200182805460018160011615610100020316600290048015610c885780601f10610c5d57610100808354040283529160200191610c88565b820191906000526020600020905b815481529060010190602001808311610c6b57829003601f168201915b505050505090806002018054600181600116156101000203166002900480601f016020809104026020016040519081016040528092919081815260200182805460018160011615610100020316600290048015610d265780601f10610cfb57610100808354040283529160200191610d26565b820191906000526020600020905b815481529060010190602001808311610d0957829003601f168201915b5050505050908060030154905084565b6006602052806000526040600020600091509050806000015490806001018054600181600116156101000203166002900480601f016020809104026020016040519081016040528092919081815260200182805460018160011615610100020316600290048015610de85780601f10610dbd57610100808354040283529160200191610de8565b820191906000526020600020905b815481529060010190602001808311610dcb57829003601f168201915b505050505090806002015490806003018054600181600116156101000203166002900480601f016020809104026020016040519081016040528092919081815260200182805460018160011615610100020316600290048015610e8c5780601f10610e6157610100808354040283529160200191610e8c565b820191906000526020600020905b815481529060010190602001808311610e6f57829003601f168201915b505050505090806004018054600181600116156101000203166002900480601f016020809104026020016040519081016040528092919081815260200182805460018160011615610100020316600290048015610f2a5780601f10610eff57610100808354040283529160200191610f2a565b820191906000526020600020905b815481529060010190602001808311610f0d57829003601f168201915b5050505050908060050160009054906101000a900460ff16905086565b6004602052806000526040600020600091509050806000015490806001018054600181600116156101000203166002900480601f016020809104026020016040519081016040528092919081815260200182805460018160011615610100020316600290048015610ff95780601f10610fce57610100808354040283529160200191610ff9565b820191906000526020600020905b815481529060010190602001808311610fdc57829003601f168201915b505050505090806002018054600181600116156101000203166002900480601f0160208091040260200160405190810160405280929190818152602001828054600181600116156101000203166002900480156110975780601f1061106c57610100808354040283529160200191611097565b820191906000526020600020905b81548152906001019060200180831161107a57829003601f168201915b505050505090806003018054600181600116156101000203166002900480601f0160208091040260200160405190810160405280929190818152602001828054600181600116156101000203166002900480156111355780601f1061110a57610100808354040283529160200191611135565b820191906000526020600020905b81548152906001019060200180831161111857829003601f168201915b505050505090806004015490806005015490806006018054600181600116156101000203166002900480601f0160208091040260200160405190810160405280929190818152602001828054600181600116156101000203166002900480156111df5780601f106111b4576101008083540402835291602001916111df565b820191906000526020600020905b8154815290600101906020018083116111c257829003601f168201915b5050505050908060070160009054906101000a900460ff16905088565b60016006600084815260200190815260200160002060050160006101000a81548160ff02191690831515021790555060066000838152602001908152602001600020600401600460008381526020019081526020016000206006019080546001816001161561010002031660029004611276929190611577565b5060016004600083815260200190815260200160002060070160006101000a81548160ff0219169083151502179055505050565b6002600081548092919060010191905055506040518060c001604052806002548152602001858152602001848152602001838152602001828152602001600015158152506006600060025481526020019081526020016000206000820151816000015560208201518160010190805190602001906113299291906114f7565b506040820151816002015560608201518160030190805190602001906113509291906114f7565b50608082015181600401908051906020019061136d9291906114f7565b5060a08201518160050160006101000a81548160ff02191690831515021790555090505050505050565b60005481565b60025481565b600080815480929190600101919050555060405180610100016040528060005481526020018581526020018481526020018381526020018281526020014281526020016040518060400160405280600381526020017f676f76000000000000000000000000000000000000000000000000000000000081525081526020016000151581525060046000805481526020019081526020016000206000820151816000015560208201518160010190805190602001906114629291906114f7565b50604082015181600201908051906020019061147f9291906114f7565b50606082015181600301908051906020019061149c9291906114f7565b506080820151816004015560a0820151816005015560c08201518160060190805190602001906114cd9291906114f7565b5060e08201518160070160006101000a81548160ff02191690831515021790555090505050505050565b828054600181600116156101000203166002900490600052602060002090601f016020900481019282601f1061153857805160ff1916838001178555611566565b82800160010185558215611566579182015b8281111561156557825182559160200191906001019061154a565b5b50905061157391906115fe565b5090565b828054600181600116156101000203166002900490600052602060002090601f016020900481019282601f106115b057805485556115ed565b828001600101855582156115ed57600052602060002091601f016020900482015b828111156115ec5782548255916001019190600101906115d1565b5b5090506115fa91906115fe565b5090565b61162091905b8082111561161c576000816000905550600101611604565b5090565b9056fea265627a7a72315820f0c121de0ca626b98b41d86a79409b61e39a16e3570d9e420d233ac8c885cceb64736f6c63430005100032",
  "source": "// SPDX-License-Identifier: MIT\npragma solidity >=0.4.21 <8.10.0;\n\ncontract Contractio {\n  uint256 public contractCount = 0;\n  uint256 public userCount=0;\n  uint256 public bidCount=0;\n  \n    address owner;\n\n    modifier onlyOwner() {\n        require(msg.sender == owner);\n        _;\n    }\n\n    constructor() public{\n        owner = msg.sender;\n    }\n\n    struct Contract {\n        uint256 id;\n        string name;\n        string sector;\n        string description;\n        uint256 baseAmount;\n        uint256 createdAt;\n        string allocatedTo;\n        bool completed;\n    }\n\n    struct User {\n        uint256 id;\n        string username;\n        string email;\n        uint256 createdAt;\n    }\n   \n    struct Bid{\n        uint256 id;\n        string desc;\n        uint256 amount;\n        string forContract;\n        string bidder;\n        bool approved;\n    }\n\n    mapping(uint => Contract) public contracts;\n    mapping(uint => User) public users;\n    mapping(uint => Bid) public bids;\n\n    \n    function addUser(string memory _username,string memory _email) public {\n        userCount++;\n        users[userCount]=User(userCount,_username,_email,block.timestamp);\n    }\n\n    function addContract(string memory _name,string memory _sector,string memory _description,uint256 _baseAmount) public{\n        contractCount++;\n        contracts[contractCount]=Contract(contractCount,_name,_sector,_description,_baseAmount,block.timestamp,\"gov\",false);\n        \n    }\n\n    function addBid(string memory _desc,uint256 _amount,string memory _forContract,string memory _bidder) public{\n        bidCount++;\n        bids[bidCount]=Bid(bidCount,_desc,_amount,_forContract,_bidder,false);\n    }\n   \n    function approveBid(uint256 _bidSerial,uint256 _contractSerial) public{\n        \n        bids[_bidSerial].approved= true;\n        contracts[_contractSerial].allocatedTo=bids[_bidSerial].bidder;\n        contracts[_contractSerial].completed=true;\n    }\n\n\n}\n\n\n\n\n",
  "sourcePath": "/home/deucaleon19/Documents/HACKOSWAP/contracts/Contractio.sol",
  "compiler": {
    "name": "solc",
    "version": "0.5.16+commit.9c3226ce.Emscripten.clang"
  },
  "schemaVersion": "3.4.5",
  "updatedAt": "2022-03-13T03:25:02.460Z",
  "networkType": "ethereum",
  "devdoc": {
    "methods": {}
  },
  "userdoc": {
    "methods": {}
  }
}